{
  "_format": "hh-sol-artifact-1",
  "contractName": "MyShop",
  "sourceName": "contracts/Shops/MyERC20Shop.sol",
  "abi": [
    {
      "inputs": [],
      "stateMutability": "nonpayable",
      "type": "constructor"
    },
    {
      "anonymous": false,
      "inputs": [
        {
          "indexed": false,
          "internalType": "uint256",
          "name": "_amount",
          "type": "uint256"
        },
        {
          "indexed": true,
          "internalType": "address",
          "name": "_buyer",
          "type": "address"
        }
      ],
      "name": "Bought",
      "type": "event"
    },
    {
      "anonymous": false,
      "inputs": [
        {
          "indexed": false,
          "internalType": "uint256",
          "name": "_amount",
          "type": "uint256"
        },
        {
          "indexed": true,
          "internalType": "address",
          "name": "_seller",
          "type": "address"
        }
      ],
      "name": "Sold",
      "type": "event"
    },
    {
      "inputs": [],
      "name": "ERC1155Token",
      "outputs": [
        {
          "internalType": "contract MyERC1155Token",
          "name": "",
          "type": "address"
        }
      ],
      "stateMutability": "view",
      "type": "function"
    },
    {
      "inputs": [],
      "name": "NFTtoken",
      "outputs": [
        {
          "internalType": "contract MyERC721Token",
          "name": "",
          "type": "address"
        }
      ],
      "stateMutability": "view",
      "type": "function"
    },
    {
      "inputs": [
        {
          "internalType": "uint256",
          "name": "tokenId",
          "type": "uint256"
        },
        {
          "internalType": "uint256",
          "name": "amount",
          "type": "uint256"
        },
        {
          "internalType": "bytes",
          "name": "data",
          "type": "bytes"
        }
      ],
      "name": "_mintERC1155Token",
      "outputs": [],
      "stateMutability": "nonpayable",
      "type": "function"
    },
    {
      "inputs": [
        {
          "internalType": "uint256",
          "name": "tokenId",
          "type": "uint256"
        },
        {
          "internalType": "uint256",
          "name": "amount",
          "type": "uint256"
        }
      ],
      "name": "_mintERC721Token",
      "outputs": [],
      "stateMutability": "nonpayable",
      "type": "function"
    },
    {
      "inputs": [
        {
          "internalType": "uint256",
          "name": "amount",
          "type": "uint256"
        }
      ],
      "name": "approve",
      "outputs": [],
      "stateMutability": "nonpayable",
      "type": "function"
    },
    {
      "inputs": [],
      "name": "buy",
      "outputs": [],
      "stateMutability": "payable",
      "type": "function"
    },
    {
      "inputs": [
        {
          "internalType": "uint256",
          "name": "id",
          "type": "uint256"
        }
      ],
      "name": "getERC1155Balance",
      "outputs": [
        {
          "internalType": "uint256",
          "name": "",
          "type": "uint256"
        }
      ],
      "stateMutability": "view",
      "type": "function"
    },
    {
      "inputs": [],
      "name": "getERC721Balance",
      "outputs": [
        {
          "internalType": "uint256",
          "name": "",
          "type": "uint256"
        }
      ],
      "stateMutability": "view",
      "type": "function"
    },
    {
      "inputs": [],
      "name": "owner",
      "outputs": [
        {
          "internalType": "address payable",
          "name": "",
          "type": "address"
        }
      ],
      "stateMutability": "view",
      "type": "function"
    },
    {
      "inputs": [
        {
          "internalType": "uint256",
          "name": "_amountToSell",
          "type": "uint256"
        }
      ],
      "name": "sell",
      "outputs": [],
      "stateMutability": "nonpayable",
      "type": "function"
    },
    {
      "inputs": [],
      "name": "senderBalance",
      "outputs": [
        {
          "internalType": "uint256",
          "name": "",
          "type": "uint256"
        }
      ],
      "stateMutability": "view",
      "type": "function"
    },
    {
      "inputs": [],
      "name": "token",
      "outputs": [
        {
          "internalType": "contract IERC20",
          "name": "",
          "type": "address"
        }
      ],
      "stateMutability": "view",
      "type": "function"
    },
    {
      "inputs": [],
      "name": "tokenBalance",
      "outputs": [
        {
          "internalType": "uint256",
          "name": "",
          "type": "uint256"
        }
      ],
      "stateMutability": "view",
      "type": "function"
    }
  ],
  "bytecode": "0x608060405234801561000f575f80fd5b503060405161001d90610101565b6001600160a01b039091168152602001604051809103905ff080158015610046573d5f803e3d5ffd5b505f80546001600160a01b0319166001600160a01b03929092169190911790556040516100729061010f565b604051809103905ff08015801561008b573d5f803e3d5ffd5b50600180546001600160a01b0319166001600160a01b03929092169190911790556040516100b89061011d565b604051809103905ff0801580156100d1573d5f803e3d5ffd5b50600280546001600160a01b03929092166001600160a01b0319928316179055600380549091163317905561012b565b610cf38062000eed83390190565b61180a8062001be083390190565b6115c580620033ea83390190565b610db480620001395f395ff3fe6080604052600436106100bf575f3560e01c80639e1a4d191161007c578063b759f95411610057578063b759f954146101cf578063c4640541146101ee578063e4849b321461020d578063fc0c546a1461022c575f80fd5b80639e1a4d1914610194578063a6f2ae3a146101a8578063b116fcc3146101b0575f80fd5b8063158ccb24146100c357806328bda9dc146100e457806371abaf281461011657806373ee45081461012a5780638ce671ec146101615780638da5cb5b14610175575b5f80fd5b3480156100ce575f80fd5b506100e26100dd366004610b5d565b61024a565b005b3480156100ef575f80fd5b506101036100fe366004610b7d565b6103d5565b6040519081526020015b60405180910390f35b348015610121575f80fd5b5061010361044a565b348015610135575f80fd5b50600254610149906001600160a01b031681565b6040516001600160a01b03909116815260200161010d565b34801561016c575f80fd5b506101036104ba565b348015610180575f80fd5b50600354610149906001600160a01b031681565b34801561019f575f80fd5b506101036104ea565b6100e261051a565b3480156101bb575f80fd5b506100e26101ca366004610b94565b61063e565b3480156101da575f80fd5b506100e26101e9366004610b7d565b6107c4565b3480156101f9575f80fd5b50600154610149906001600160a01b031681565b348015610218575f80fd5b506100e2610227366004610b7d565b610825565b348015610237575f80fd5b505f54610149906001600160a01b031681565b5f546040516370a0823160e01b815233600482015282916001600160a01b0316906370a0823190602401602060405180830381865afa15801561028f573d5f803e3d5ffd5b505050506040513d601f19601f820116820180604052508101906102b39190610c0d565b10156103065760405162461bcd60e51b815260206004820152601860248201527f496e73756666696369656e7420455243323020546f6b656e000000000000000060448201526064015b60405180910390fd5b5f546040516323b872dd60e01b8152336004820152306024820152604481018390526001600160a01b03909116906323b872dd906064015f604051808303815f87803b158015610354575f80fd5b505af1158015610366573d5f803e3d5ffd5b50506001546001600160a01b0316915063d204c45e90503361038785610a58565b6040518363ffffffff1660e01b81526004016103a4929190610c24565b5f604051808303815f87803b1580156103bb575f80fd5b505af11580156103cd573d5f803e3d5ffd5b505050505050565b600254604051627eeac760e11b8152336004820152602481018390525f916001600160a01b03169062fdd58e90604401602060405180830381865afa158015610420573d5f803e3d5ffd5b505050506040513d601f19601f820116820180604052508101906104449190610c0d565b92915050565b6001546040516370a0823160e01b81523360048201525f916001600160a01b0316906370a08231906024015b602060405180830381865afa158015610491573d5f803e3d5ffd5b505050506040513d601f19601f820116820180604052508101906104b59190610c0d565b905090565b5f80546040516370a0823160e01b81523360048201526001600160a01b03909116906370a0823190602401610476565b5f80546040516370a0823160e01b81523060048201526001600160a01b03909116906370a0823190602401610476565b348061055c5760405162461bcd60e51b81526020600482015260116024820152706e6f7420656e6f7567682066756e64732160781b60448201526064016102fd565b806105656104ea565b10156105a85760405162461bcd60e51b81526020600482015260126024820152716e6f7420656e6f75676820746f6b656e732160701b60448201526064016102fd565b5f5460405163a9059cbb60e01b8152336004820152602481018390526001600160a01b039091169063a9059cbb906044015f604051808303815f87803b1580156105f0575f80fd5b505af1158015610602573d5f803e3d5ffd5b50506040518381523392507fc54c8cc1c7525b424ec71b685c00d9355581a280488018c22005332ceb2fd406915060200160405180910390a250565b5f546040516370a0823160e01b815233600482015284916001600160a01b0316906370a0823190602401602060405180830381865afa158015610683573d5f803e3d5ffd5b505050506040513d601f19601f820116820180604052508101906106a79190610c0d565b10156106f55760405162461bcd60e51b815260206004820152601860248201527f496e73756767696369656e7420455243323020546f6b656e000000000000000060448201526064016102fd565b5f546040516323b872dd60e01b8152336004820152306024820152604481018590526001600160a01b03909116906323b872dd906064015f604051808303815f87803b158015610743575f80fd5b505af1158015610755573d5f803e3d5ffd5b5050600254604051635cfa929760e01b81526001600160a01b039091169250635cfa929791506107919033908890889088908890600401610c7f565b5f604051808303815f87803b1580156107a8575f80fd5b505af11580156107ba573d5f803e3d5ffd5b5050505050505050565b5f5460405163095ea7b360e01b8152336004820152602481018390526001600160a01b039091169063095ea7b3906044015f604051808303815f87803b15801561080c575f80fd5b505af115801561081e573d5f803e3d5ffd5b5050505050565b5f8111801561089b57505f546040516370a0823160e01b815233600482015282916001600160a01b0316906370a0823190602401602060405180830381865afa158015610874573d5f803e3d5ffd5b505050506040513d601f19601f820116820180604052508101906108989190610c0d565b10155b6108db5760405162461bcd60e51b8152602060048201526011602482015270696e636f727265637420616d6f756e742160781b60448201526064016102fd565b5f8054604051636eb1769f60e11b81523060048201523360248201526001600160a01b039091169063dd62ed3e90604401602060405180830381865afa158015610927573d5f803e3d5ffd5b505050506040513d601f19601f8201168201806040525081019061094b9190610c0d565b9050818110156109905760405162461bcd60e51b815260206004820152601060248201526f636865636b20616c6c6f77616e63652160801b60448201526064016102fd565b5f546040516323b872dd60e01b8152336004820152306024820152604481018490526001600160a01b03909116906323b872dd906064015f604051808303815f87803b1580156109de575f80fd5b505af11580156109f0573d5f803e3d5ffd5b505060405133925084156108fc02915084905f818181858888f19350505050158015610a1e573d5f803e3d5ffd5b5060405182815233907fdc0971a41bd3cc3dec88e610438b1a9f0752975bbd80f195baf7b766c0aec03e9060200160405180910390a25050565b6060815f03610a7e5750506040805180820190915260018152600360fc1b602082015290565b815f5b8115610aa75780610a9181610cde565b9150610aa09050600a83610d0a565b9150610a81565b5f8167ffffffffffffffff811115610ac157610ac1610d1d565b6040519080825280601f01601f191660200182016040528015610aeb576020820181803683370190505b5090505b8415610b5557610b00600183610d31565b9150610b0d600a86610d44565b610b18906030610d57565b60f81b818381518110610b2d57610b2d610d6a565b60200101906001600160f81b03191690815f1a905350610b4e600a86610d0a565b9450610aef565b949350505050565b5f8060408385031215610b6e575f80fd5b50508035926020909101359150565b5f60208284031215610b8d575f80fd5b5035919050565b5f805f8060608587031215610ba7575f80fd5b8435935060208501359250604085013567ffffffffffffffff80821115610bcc575f80fd5b818701915087601f830112610bdf575f80fd5b813581811115610bed575f80fd5b886020828501011115610bfe575f80fd5b95989497505060200194505050565b5f60208284031215610c1d575f80fd5b5051919050565b60018060a01b03831681525f602060408184015283518060408501525f5b81811015610c5e57858101830151858201606001528201610c42565b505f606082860101526060601f19601f830116850101925050509392505050565b60018060a01b038616815284602082015283604082015260806060820152816080820152818360a08301375f81830160a090810191909152601f909201601f19160101949350505050565b634e487b7160e01b5f52601160045260245ffd5b5f60018201610cef57610cef610cca565b5060010190565b634e487b7160e01b5f52601260045260245ffd5b5f82610d1857610d18610cf6565b500490565b634e487b7160e01b5f52604160045260245ffd5b8181038181111561044457610444610cca565b5f82610d5257610d52610cf6565b500690565b8082018082111561044457610444610cca565b634e487b7160e01b5f52603260045260245ffdfea264697066735822122017beeaf28be578075f5160137c9d6acc9b487a15b57a69502b4e5460eac6c75164736f6c63430008150033608060405234801562000010575f80fd5b5060405162000cf338038062000cf383398101604081905262000033916200019c565b6040518060400160405280600881526020016726a1a9aa37b5b2b760c11b815250604051806040016040528060038152602001621350d560ea1b81525060148383600490816200008491906200026a565b5060056200009384826200026a565b50600180546001600160a01b03191633179055620000b28282620000bd565b505050505062000358565b6001546001600160a01b031633146200010c5760405162461bcd60e51b815260206004820152600d60248201526c6e6f7420616e206f776e65722160981b604482015260640160405180910390fd5b6001600160a01b0381165f90815260026020526040812080548492906200013590849062000332565b92505081905550815f808282546200014e919062000332565b90915550506040518281526001600160a01b038216905f907fddf252ad1be2c89b69c2b068fc378daa952ba7f163c4a11628f55a4df523b3ef9060200160405180910390a35050565b505050565b5f60208284031215620001ad575f80fd5b81516001600160a01b0381168114620001c4575f80fd5b9392505050565b634e487b7160e01b5f52604160045260245ffd5b600181811c90821680620001f457607f821691505b6020821081036200021357634e487b7160e01b5f52602260045260245ffd5b50919050565b601f82111562000197575f81815260208120601f850160051c81016020861015620002415750805b601f850160051c820191505b8181101562000262578281556001016200024d565b505050505050565b81516001600160401b03811115620002865762000286620001cb565b6200029e81620002978454620001df565b8462000219565b602080601f831160018114620002d4575f8415620002bc5750858301515b5f19600386901b1c1916600185901b17855562000262565b5f85815260208120601f198616915b828110156200030457888601518255948401946001909101908401620002e3565b50858210156200032257878501515f19600388901b60f8161c191681555b5050505050600190811b01905550565b808201808211156200035257634e487b7160e01b5f52601160045260245ffd5b92915050565b61098d80620003665f395ff3fe608060405234801561000f575f80fd5b50600436106100fb575f3560e01c80638da5cb5b11610093578063a9059cbb11610063578063a9059cbb14610205578063b09f126614610218578063d28d885214610220578063dd62ed3e14610228575f80fd5b80638da5cb5b146101ac57806394bf804d146101d757806395d89b41146101ea5780639dc29fac146101f2575f80fd5b806327e235e3116100ce57806327e235e314610156578063313ce5671461017557806370a082311461017c5780637e1c0c09146101a4575f80fd5b806306fdde03146100ff578063095ea7b31461011d57806318160ddd1461013257806323b872dd14610143575b5f80fd5b61010761023b565b60405161011491906107ac565b60405180910390f35b61013061012b366004610812565b6102cb565b005b5f545b604051908152602001610114565b61013061015136600461083a565b6102da565b610135610164366004610873565b60026020525f908152604090205481565b6012610135565b61013561018a366004610873565b6001600160a01b03165f9081526002602052604090205490565b6101355f5481565b6001546101bf906001600160a01b031681565b6040516001600160a01b039091168152602001610114565b6101306101e5366004610893565b61042c565b6101076104fd565b610130610200366004610812565b61050c565b610130610213366004610812565b61059d565b610107610687565b610107610713565b6101356102363660046108bd565b610720565b60606004805461024a906108e5565b80601f0160208091040260200160405190810160405280929190818152602001828054610276906108e5565b80156102c15780601f10610298576101008083540402835291602001916102c1565b820191905f5260205f20905b8154815290600101906020018083116102a457829003601f168201915b5050505050905090565b6102d633838361074c565b5050565b8281806102fb836001600160a01b03165f9081526002602052604090205490565b10156103435760405162461bcd60e51b81526020600482015260126024820152716e6f7420656e6f75676820746f6b656e732160701b60448201526064015b60405180910390fd5b6001600160a01b038085165f90815260036020908152604080832093891683529290529081208054859290610379908490610931565b90915550506001600160a01b0385165f90815260026020526040812080548592906103a5908490610931565b90915550506001600160a01b0384165f90815260026020526040812080548592906103d1908490610944565b92505081905550836001600160a01b0316856001600160a01b03167fddf252ad1be2c89b69c2b068fc378daa952ba7f163c4a11628f55a4df523b3ef8560405161041d91815260200190565b60405180910390a35050505050565b6001546001600160a01b031633146104765760405162461bcd60e51b815260206004820152600d60248201526c6e6f7420616e206f776e65722160981b604482015260640161033a565b6001600160a01b0381165f908152600260205260408120805484929061049d908490610944565b92505081905550815f808282546104b49190610944565b90915550506040518281526001600160a01b038216905f907fddf252ad1be2c89b69c2b068fc378daa952ba7f163c4a11628f55a4df523b3ef9060200160405180910390a35050565b60606005805461024a906108e5565b6001546001600160a01b031633146105565760405162461bcd60e51b815260206004820152600d60248201526c6e6f7420616e206f776e65722160981b604482015260640161033a565b6001600160a01b0382165f908152600260205260408120805483929061057d908490610931565b92505081905550805f808282546105949190610931565b90915550505050565b335f8181526002602052604090205482908111156105f25760405162461bcd60e51b81526020600482015260126024820152716e6f7420656e6f75676820746f6b656e732160701b604482015260640161033a565b335f9081526002602052604081208054859290610610908490610931565b90915550506001600160a01b0384165f908152600260205260408120805485929061063c908490610944565b90915550506040518381526001600160a01b0385169033907fddf252ad1be2c89b69c2b068fc378daa952ba7f163c4a11628f55a4df523b3ef9060200160405180910390a350505050565b60058054610694906108e5565b80601f01602080910402602001604051908101604052809291908181526020018280546106c0906108e5565b801561070b5780601f106106e25761010080835404028352916020019161070b565b820191905f5260205f20905b8154815290600101906020018083116106ee57829003601f168201915b505050505081565b60048054610694906108e5565b6001600160a01b038083165f908152600360209081526040808320938516835292905220545b92915050565b6001600160a01b038381165f8181526003602090815260408083209487168084529482529182902085905590518481527f6e11fb1b7f119e3f2fa29896ef5fdf8b8a2d0d4df6fe90ba8668e7d8b2ffa25e910160405180910390a3505050565b5f6020808352835180828501525f5b818110156107d7578581018301518582016040015282016107bb565b505f604082860101526040601f19601f8301168501019250505092915050565b80356001600160a01b038116811461080d575f80fd5b919050565b5f8060408385031215610823575f80fd5b61082c836107f7565b946020939093013593505050565b5f805f6060848603121561084c575f80fd5b610855846107f7565b9250610863602085016107f7565b9150604084013590509250925092565b5f60208284031215610883575f80fd5b61088c826107f7565b9392505050565b5f80604083850312156108a4575f80fd5b823591506108b4602084016107f7565b90509250929050565b5f80604083850312156108ce575f80fd5b6108d7836107f7565b91506108b4602084016107f7565b600181811c908216806108f957607f821691505b60208210810361091757634e487b7160e01b5f52602260045260245ffd5b50919050565b634e487b7160e01b5f52601160045260245ffd5b818103818111156107465761074661091d565b808201808211156107465761074661091d56fea2646970667358221220e4e2630a71777a28a8f0f74a00adc3173161bc47d6628314fbbcb37acd60dd7f64736f6c63430008150033608060405234801562000010575f80fd5b506040518060400160405280600781526020016626bcaa37b5b2b760c91b815250604051806040016040528060038152602001624d544b60e81b815250815f90816200005d919062000127565b5060016200006c828262000127565b5050600780546001600160a01b0319163317905550620001ef565b634e487b7160e01b5f52604160045260245ffd5b600181811c90821680620000b057607f821691505b602082108103620000cf57634e487b7160e01b5f52602260045260245ffd5b50919050565b601f82111562000122575f81815260208120601f850160051c81016020861015620000fd5750805b601f850160051c820191505b818110156200011e5782815560010162000109565b5050505b505050565b81516001600160401b0381111562000143576200014362000087565b6200015b816200015484546200009b565b84620000d5565b602080601f83116001811462000191575f8415620001795750858301515b5f19600386901b1c1916600185901b1785556200011e565b5f85815260208120601f198616915b82811015620001c157888601518255948401946001909101908401620001a0565b5085821015620001df57878501515f19600388901b60f8161c191681555b5050505050600190811b01905550565b61160d80620001fd5f395ff3fe608060405234801561000f575f80fd5b50600436106100e5575f3560e01c806395d89b4111610088578063b88d4fde11610063578063b88d4fde146101e4578063c87b56dd146101f7578063d204c45e1461020a578063e985e9c51461021d575f80fd5b806395d89b41146101b6578063a22cb465146101be578063b3e1c718146101d1575f80fd5b806342966c68116100c357806342966c681461015c5780636352211e1461016f57806370a08231146101825780638da5cb5b146101a3575f80fd5b806306fdde03146100e9578063081812fc14610107578063095ea7b314610147575b5f80fd5b6100f1610240565b6040516100fe91906110d6565b60405180910390f35b61012f6101153660046110ef565b5f908152600560205260409020546001600160a01b031690565b6040516001600160a01b0390911681526020016100fe565b61015a610155366004611121565b6102cf565b005b61015a61016a3660046110ef565b6103ed565b61012f61017d3660046110ef565b61043c565b610195610190366004611149565b610491565b6040519081526020016100fe565b60075461012f906001600160a01b031681565b6100f16104fa565b61015a6101cc366004611162565b610509565b61015a6101df366004611121565b6105c5565b61015a6101f23660046111af565b6105e2565b6100f16102053660046110ef565b610637565b61015a610218366004611284565b610648565b61023061022b366004611300565b6106f8565b60405190151581526020016100fe565b60605f805461024e90611331565b80601f016020809104026020016040519081016040528092919081815260200182805461027a90611331565b80156102c55780601f1061029c576101008083540402835291602001916102c5565b820191905f5260205f20905b8154815290600101906020018083116102a857829003601f168201915b5050505050905090565b5f6102d98261043c565b90506001600160a01b0381163314806102f757506102f781336106f8565b6103385760405162461bcd60e51b815260206004820152600d60248201526c6e6f7420616e206f776e65722160981b60448201526064015b60405180910390fd5b806001600160a01b0316836001600160a01b0316036103925760405162461bcd60e51b815260206004820152601660248201527531b0b73737ba1030b8383937bb32903a379039b2b63360511b604482015260640161032f565b5f8281526005602052604080822080546001600160a01b0319166001600160a01b0387811691821790925591518593918516917f8c5be1e5ebec7d5bd14f71427d1e84f3dd0314c0f7b2291e5b200ac8c7c3b92591a4505050565b6103f73382610725565b6104305760405162461bcd60e51b815260206004820152600a6024820152696e6f74206f776e65722160b01b604482015260640161032f565b61043981610782565b50565b5f8181526003602052604081205482906001600160a01b03166104715760405162461bcd60e51b815260040161032f90611363565b5f838152600360205260409020546001600160a01b031691505b50919050565b5f6001600160a01b0382166104df5760405162461bcd60e51b81526020600482015260146024820152736f776e65722063616e6e6f74206265207a65726f60601b604482015260640161032f565b506001600160a01b03165f9081526002602052604090205490565b60606001805461024e90611331565b6001600160a01b038216330361055a5760405162461bcd60e51b815260206004820152601660248201527531b0b73737ba1030b8383937bb32903a379039b2b63360511b604482015260640161032f565b335f8181526004602090815260408083206001600160a01b03871680855290835292819020805460ff191686151590811790915590519081529192917f17307eab39ab6107e8899845ad3d59bd9653f200f220920489ca2b5937696c31910160405180910390a35050565b6105de828260405180602001604052805f81525061078b565b5050565b6105ec3383610725565b6106255760405162461bcd60e51b815260206004820152600a6024820152696e6f74206f776e65722160b01b604482015260640161032f565b610631848484846107e8565b50505050565b60606106428261084b565b92915050565b6007546001600160a01b031633146106925760405162461bcd60e51b815260206004820152600d60248201526c6e6f7420616e206f776e65722160981b604482015260640161032f565b61069e836008546105c5565b6106df60085483838080601f0160208091040260200160405190810160405280939291908181526020018383808284375f9201919091525061099b92505050565b60088054905f6106ee8361139c565b9190505550505050565b6001600160a01b039182165f90815260046020908152604080832093909416825291909152205460ff1690565b5f806107308361043c565b9050806001600160a01b0316846001600160a01b03161480610757575061075781856106f8565b8061077a57505f838152600560205260409020546001600160a01b038581169116145b949350505050565b610439816109e7565b6107958383610a25565b6107a15f848484610b52565b6107e35760405162461bcd60e51b81526020600482015260136024820152723737b716b2b9319b9918903932b1b2b4bb32b960691b604482015260640161032f565b505050565b6107f3848484610c7f565b6107ff84848484610b52565b6106315760405162461bcd60e51b815260206004820152601f60248201527f7472616e7366657220746f206e6f6e2d65726337323120726563656976657200604482015260640161032f565b60608161086e815f908152600360205260409020546001600160a01b0316151590565b61088a5760405162461bcd60e51b815260040161032f90611363565b5f83815260066020526040812080546108a290611331565b80601f01602080910402602001604051908101604052809291908181526020018280546108ce90611331565b80156109195780601f106108f057610100808354040283529160200191610919565b820191905f5260205f20905b8154815290600101906020018083116108fc57829003601f168201915b505050505090505f610945604080518082019091526007815266697066733a2f2f60c81b602082015290565b905080515f036109575750915061048b565b8151156109895780826040516020016109719291906113b4565b6040516020818303038152906040529350505061048b565b61099285610dec565b95945050505050565b5f8281526003602052604090205482906001600160a01b03166109d05760405162461bcd60e51b815260040161032f90611363565b5f838152600660205260409020610631838261142f565b6109f081610ea0565b5f8181526006602052604090208054610a0890611331565b159050610439575f8181526006602052604081206104399161103f565b6001600160a01b038216610a6d5760405162461bcd60e51b815260206004820152600f60248201526e7a65726f206164647265737320746f60881b604482015260640161032f565b5f818152600360205260409020546001600160a01b031615610ad15760405162461bcd60e51b815260206004820152601f60248201527f7468697320746f6b656e20696420697320616c7265616479206d696e74656400604482015260640161032f565b5f81815260036020908152604080832080546001600160a01b0319166001600160a01b038716908117909155835260029091528120805491610b128361139c565b909155505060405181906001600160a01b038416905f907fddf252ad1be2c89b69c2b068fc378daa952ba7f163c4a11628f55a4df523b3ef908290a45050565b5f6001600160a01b0384163b15610c7457604051630a85bd0160e11b81526001600160a01b0385169063150b7a0290610b959033908990889088906004016114eb565b6020604051808303815f875af1925050508015610bcf575060408051601f3d908101601f19168201909252610bcc91810190611527565b60015b610c5a573d808015610bfc576040519150601f19603f3d011682016040523d82523d5f602084013e610c01565b606091505b5080515f03610c525760405162461bcd60e51b815260206004820152601f60248201527f5472616e7366657220746f206e6f6e2d65726337323120726563656976657200604482015260640161032f565b805181602001fd5b6001600160e01b031916630a85bd0160e11b14905061077a565b506001949350505050565b826001600160a01b0316610c928261043c565b6001600160a01b031614610cdb5760405162461bcd60e51b815260206004820152601060248201526f696e636f7272656374206f776e65722160801b604482015260640161032f565b6001600160a01b038216610d275760405162461bcd60e51b8152602060048201526013602482015272746f2061646472657373206973207a65726f2160681b604482015260640161032f565b5f81815260056020908152604080832080546001600160a01b03191690556001600160a01b038616835260029091528120805491610d648361154e565b90915550506001600160a01b0382165f908152600260205260408120805491610d8c8361139c565b90915550505f8181526003602052604080822080546001600160a01b0319166001600160a01b0386811691821790925591518493918716917fddf252ad1be2c89b69c2b068fc378daa952ba7f163c4a11628f55a4df523b3ef91a4505050565b606081610e0f815f908152600360205260409020546001600160a01b0316151590565b610e2b5760405162461bcd60e51b815260040161032f90611363565b5f610e50604080518082019091526007815266697066733a2f2f60c81b602082015290565b90505f815111610e6e5760405180602001604052805f81525061077a565b80610e7885610f42565b604051602001610e899291906113b4565b604051602081830303815290604052949350505050565b5f610eaa8261043c565b90505f82815260056020908152604080832080546001600160a01b03191690556001600160a01b038416835260029091528120805491610ee98361154e565b90915550505f8281526003602052604080822080546001600160a01b0319169055518391906001600160a01b038416907fddf252ad1be2c89b69c2b068fc378daa952ba7f163c4a11628f55a4df523b3ef908390a45050565b6060815f03610f685750506040805180820190915260018152600360fc1b602082015290565b815f5b8115610f915780610f7b8161139c565b9150610f8a9050600a83611577565b9150610f6b565b5f8167ffffffffffffffff811115610fab57610fab61119b565b6040519080825280601f01601f191660200182016040528015610fd5576020820181803683370190505b5090505b841561077a57610fea60018361158a565b9150610ff7600a8661159d565b6110029060306115b0565b60f81b818381518110611017576110176115c3565b60200101906001600160f81b03191690815f1a905350611038600a86611577565b9450610fd9565b50805461104b90611331565b5f825580601f1061105a575050565b601f0160209004905f5260205f209081019061043991905b80821115611085575f8155600101611072565b5090565b5f5b838110156110a357818101518382015260200161108b565b50505f910152565b5f81518084526110c2816020860160208601611089565b601f01601f19169290920160200192915050565b602081525f6110e860208301846110ab565b9392505050565b5f602082840312156110ff575f80fd5b5035919050565b80356001600160a01b038116811461111c575f80fd5b919050565b5f8060408385031215611132575f80fd5b61113b83611106565b946020939093013593505050565b5f60208284031215611159575f80fd5b6110e882611106565b5f8060408385031215611173575f80fd5b61117c83611106565b915060208301358015158114611190575f80fd5b809150509250929050565b634e487b7160e01b5f52604160045260245ffd5b5f805f80608085870312156111c2575f80fd5b6111cb85611106565b93506111d960208601611106565b925060408501359150606085013567ffffffffffffffff808211156111fc575f80fd5b818701915087601f83011261120f575f80fd5b8135818111156112215761122161119b565b604051601f8201601f19908116603f011681019083821181831017156112495761124961119b565b816040528281528a6020848701011115611261575f80fd5b826020860160208301375f60208483010152809550505050505092959194509250565b5f805f60408486031215611296575f80fd5b61129f84611106565b9250602084013567ffffffffffffffff808211156112bb575f80fd5b818601915086601f8301126112ce575f80fd5b8135818111156112dc575f80fd5b8760208285010111156112ed575f80fd5b6020830194508093505050509250925092565b5f8060408385031215611311575f80fd5b61131a83611106565b915061132860208401611106565b90509250929050565b600181811c9082168061134557607f821691505b60208210810361048b57634e487b7160e01b5f52602260045260245ffd5b6020808252600b908201526a6e6f74206d696e7465642160a81b604082015260600190565b634e487b7160e01b5f52601160045260245ffd5b5f600182016113ad576113ad611388565b5060010190565b5f83516113c5818460208801611089565b8351908301906113d9818360208801611089565b01949350505050565b601f8211156107e3575f81815260208120601f850160051c810160208610156114085750805b601f850160051c820191505b8181101561142757828155600101611414565b505050505050565b815167ffffffffffffffff8111156114495761144961119b565b61145d816114578454611331565b846113e2565b602080601f831160018114611490575f84156114795750858301515b5f19600386901b1c1916600185901b178555611427565b5f85815260208120601f198616915b828110156114be5788860151825594840194600190910190840161149f565b50858210156114db57878501515f19600388901b60f8161c191681555b5050505050600190811b01905550565b6001600160a01b03858116825284166020820152604081018390526080606082018190525f9061151d908301846110ab565b9695505050505050565b5f60208284031215611537575f80fd5b81516001600160e01b0319811681146110e8575f80fd5b5f8161155c5761155c611388565b505f190190565b634e487b7160e01b5f52601260045260245ffd5b5f8261158557611585611563565b500490565b8181038181111561064257610642611388565b5f826115ab576115ab611563565b500690565b8082018082111561064257610642611388565b634e487b7160e01b5f52603260045260245ffdfea2646970667358221220c9831f6bf821f9e37732434db969d9b38f2a82e77eef3a25bc7d9b547d5a9f8264736f6c63430008150033608060405234801562000010575f80fd5b506040805180820190915260018152602f60f81b602082015262000034816200003b565b50620001b5565b6002620000498282620000ed565b5050565b634e487b7160e01b5f52604160045260245ffd5b600181811c908216806200007657607f821691505b6020821081036200009557634e487b7160e01b5f52602260045260245ffd5b50919050565b601f821115620000e8575f81815260208120601f850160051c81016020861015620000c35750805b601f850160051c820191505b81811015620000e457828155600101620000cf565b5050505b505050565b81516001600160401b038111156200010957620001096200004d565b62000121816200011a845462000061565b846200009b565b602080601f83116001811462000157575f84156200013f5750858301515b5f19600386901b1c1916600185901b178555620000e4565b5f85815260208120601f198616915b82811015620001875788860151825594840194600190910190840162000166565b5085821015620001a557878501515f19600388901b60f8161c191681555b5050505050600190811b01905550565b61140280620001c35f395ff3fe608060405234801561000f575f80fd5b506004361061009a575f3560e01c80635cfa9297116100635780635cfa92971461012c5780638e8a75901461013f578063a22cb46514610152578063e985e9c514610165578063f242432a14610188575f80fd5b8062fdd58e1461009e5780630e89341c146100c45780632eb2c2d6146100e45780634e1273f4146100f95780634f2999a714610119575b5f80fd5b6100b16100ac366004610d15565b61019b565b6040519081526020015b60405180910390f35b6100d76100d2366004610d3d565b6101d6565b6040516100bb9190610d54565b6100f76100f2366004610e25565b610268565b005b61010c610107366004610ed8565b6102a6565b6040516100bb9190610f78565b6100f7610127366004610e25565b610380565b6100f761013a366004610f91565b6106c7565b6100f761014d366004610ff4565b6106db565b6100f7610160366004611067565b6108a4565b6101786101733660046110a0565b6108b3565b60405190151581526020016100bb565b6100f7610196366004610ff4565b6108e0565b5f6001600160a01b0383166101ae575f80fd5b505f818152602081815260408083206001600160a01b03861684529091529020545b92915050565b6060600280546101e5906110d1565b80601f0160208091040260200160405190810160405280929190818152602001828054610211906110d1565b801561025c5780601f106102335761010080835404028352916020019161025c565b820191905f5260205f20905b81548152906001019060200180831161023f57829003601f168201915b50505050509050919050565b6001600160a01b038816331480610284575061028488336108b3565b61028c575f80fd5b61029c8888888888888888610380565b5050505050505050565b60608382146102b3575f80fd5b8367ffffffffffffffff8111156102cc576102cc611109565b6040519080825280602002602001820160405280156102f5578160200160208202803683370190505b5090505f5b848110156103775761034a8686838181106103175761031761111d565b905060200201602081019061032c9190611131565b85858481811061033e5761033e61111d565b9050602002013561019b565b82828151811061035c5761035c61111d565b60209081029190910101526103708161115e565b90506102fa565b50949350505050565b84831461038b575f80fd5b5f339050610430818a8a8a8a808060200260200160405190810160405280939291908181526020018383602002808284375f9201919091525050604080516020808e0282810182019093528d82529093508d92508c9182918501908490808284375f9201919091525050604080516020601f8d018190048102820181019092528b815292508b91508a90819084018382808284375f9201919091525061091292505050565b5f5b8681101561054d575f88888381811061044d5761044d61111d565b9050602002013590505f8787848181106104695761046961111d565b9050602002013590505f805f8481526020019081526020015f205f8e6001600160a01b03166001600160a01b031681526020019081526020015f20549050818110156104b3575f80fd5b6104bd8282611176565b5f808581526020019081526020015f205f8f6001600160a01b03166001600160a01b031681526020019081526020015f2081905550815f808581526020019081526020015f205f8e6001600160a01b03166001600160a01b031681526020019081526020015f205f8282546105329190611189565b92505081905550505050806105469061115e565b9050610432565b50876001600160a01b0316896001600160a01b0316826001600160a01b03167f4a39dc06d4c0dbc64b70af90fd698a233a518aa5d07e595d983b8c0526c8f7fb8a8a8a8a6040516105a194939291906111cc565b60405180910390a461064a818a8a8a8a808060200260200160405190810160405280939291908181526020018383602002808284375f9201919091525050604080516020808e0282810182019093528d82529093508d92508c9182918501908490808284375f9201919091525050604080516020601f8d018190048102820181019092528b815292508b91508a90819084018382808284375f9201919091525061091292505050565b6106bc818a8a8a8a808060200260200160405190810160405280939291908181526020018383602002808284375f9201919091525050604080516020808e0282810182019093528d82529093508d92508c9182918501908490808284375f920191909152508b92508a915061091a9050565b505050505050505050565b6106d48585858585610a86565b5050505050565b6001600160a01b0385166106ed575f80fd5b335f6106f886610aa0565b90505f61070486610aa0565b9050610749838a8a85858a8a8080601f0160208091040260200160405190810160405280939291908181526020018383808284375f9201919091525061091292505050565b5f878152602081815260408083206001600160a01b038d16845290915290205486811015610775575f80fd5b61077f8782611176565b5f808a81526020019081526020015f205f8c6001600160a01b03166001600160a01b031681526020019081526020015f2081905550865f808a81526020019081526020015f205f8b6001600160a01b03166001600160a01b031681526020019081526020015f205f8282546107f49190611189565b909155505060408051898152602081018990526001600160a01b03808c16928d821692918816917fc3d58168c5ae7397731d063d5bbf3d657854427343f4c083240f7aacaa2d0f62910160405180910390a4610889848b8b86868b8b8080601f0160208091040260200160405190810160405280939291908181526020018383808284375f9201919091525061091292505050565b610898848b8b8b8b8b8b610ae6565b50505050505050505050565b6108af338383610bc5565b5050565b6001600160a01b039182165f90815260016020908152604080832093909416825291909152205460ff1690565b6001600160a01b0386163314806108fc57506108fc86336108b3565b610904575f80fd5b6109128686868686866106db565b505050505050565b6001600160a01b0385163b15610a7d5760405163bc197c8160e01b81526001600160a01b0386169063bc197c8190610960908a908a908990899089908990600401611225565b6020604051808303815f875af192505050801561099a575060408051601f3d908101601f1916820190925261099791810190611284565b60015b610a2a576109a66112ab565b806308c379a0036109e857506109ba6112fd565b806109c557506109ea565b8060405162461bcd60e51b81526004016109df9190610d54565b60405180910390fd5b505b60405162461bcd60e51b81526020600482015260156024820152744e6f6e2d455243313135352072656365697665722160581b60448201526064016109df565b6001600160e01b0319811663bc197c8160e01b1461029c5760405162461bcd60e51b815260206004820152601060248201526f52656a656374656420746f6b656e732160801b60448201526064016109df565b50505050505050565b610a91858585610c4e565b6106d45f338787878787610ae6565b6040805160018082528183019092526060916020808301908036833701905050905081815f81518110610ad557610ad561111d565b602002602001018181525050919050565b6001600160a01b0385163b15610a7d5760405163f23a6e6160e01b81526001600160a01b0386169063f23a6e6190610b2c908a908a908990899089908990600401611386565b6020604051808303815f875af1925050508015610b66575060408051601f3d908101601f19168201909252610b6391810190611284565b60015b610b72576109a66112ab565b6001600160e01b0319811663f23a6e6160e01b1461029c5760405162461bcd60e51b815260206004820152601060248201526f52656a656374656420746f6b656e732160801b60448201526064016109df565b816001600160a01b0316836001600160a01b031603610be2575f80fd5b6001600160a01b038381165f81815260016020908152604080832094871680845294825291829020805460ff191686151590811790915591519182527f17307eab39ab6107e8899845ad3d59bd9653f200f220920489ca2b5937696c31910160405180910390a3505050565b6001600160a01b038316610c965760405162461bcd60e51b815260206004820152600f60248201526e7a65726f206164647265737320746f60881b60448201526064016109df565b5f828152602081815260408083206001600160a01b038716808552908352818420859055815186815292830185905292339290917fc3d58168c5ae7397731d063d5bbf3d657854427343f4c083240f7aacaa2d0f62910160405180910390a4505050565b80356001600160a01b0381168114610d10575f80fd5b919050565b5f8060408385031215610d26575f80fd5b610d2f83610cfa565b946020939093013593505050565b5f60208284031215610d4d575f80fd5b5035919050565b5f6020808352835180828501525f5b81811015610d7f57858101830151858201604001528201610d63565b505f604082860101526040601f19601f8301168501019250505092915050565b5f8083601f840112610daf575f80fd5b50813567ffffffffffffffff811115610dc6575f80fd5b6020830191508360208260051b8501011115610de0575f80fd5b9250929050565b5f8083601f840112610df7575f80fd5b50813567ffffffffffffffff811115610e0e575f80fd5b602083019150836020828501011115610de0575f80fd5b5f805f805f805f8060a0898b031215610e3c575f80fd5b610e4589610cfa565b9750610e5360208a01610cfa565b9650604089013567ffffffffffffffff80821115610e6f575f80fd5b610e7b8c838d01610d9f565b909850965060608b0135915080821115610e93575f80fd5b610e9f8c838d01610d9f565b909650945060808b0135915080821115610eb7575f80fd5b50610ec48b828c01610de7565b999c989b5096995094979396929594505050565b5f805f8060408587031215610eeb575f80fd5b843567ffffffffffffffff80821115610f02575f80fd5b610f0e88838901610d9f565b90965094506020870135915080821115610f26575f80fd5b50610f3387828801610d9f565b95989497509550505050565b5f8151808452602080850194508084015f5b83811015610f6d57815187529582019590820190600101610f51565b509495945050505050565b602081525f610f8a6020830184610f3f565b9392505050565b5f805f805f60808688031215610fa5575f80fd5b610fae86610cfa565b94506020860135935060408601359250606086013567ffffffffffffffff811115610fd7575f80fd5b610fe388828901610de7565b969995985093965092949392505050565b5f805f805f8060a08789031215611009575f80fd5b61101287610cfa565b955061102060208801610cfa565b94506040870135935060608701359250608087013567ffffffffffffffff811115611049575f80fd5b61105589828a01610de7565b979a9699509497509295939492505050565b5f8060408385031215611078575f80fd5b61108183610cfa565b915060208301358015158114611095575f80fd5b809150509250929050565b5f80604083850312156110b1575f80fd5b6110ba83610cfa565b91506110c860208401610cfa565b90509250929050565b600181811c908216806110e557607f821691505b60208210810361110357634e487b7160e01b5f52602260045260245ffd5b50919050565b634e487b7160e01b5f52604160045260245ffd5b634e487b7160e01b5f52603260045260245ffd5b5f60208284031215611141575f80fd5b610f8a82610cfa565b634e487b7160e01b5f52601160045260245ffd5b5f6001820161116f5761116f61114a565b5060010190565b818103818111156101d0576101d061114a565b808201808211156101d0576101d061114a565b8183525f6001600160fb1b038311156111b3575f80fd5b8260051b80836020870137939093016020019392505050565b604081525f6111df60408301868861119c565b82810360208401526111f281858761119c565b979650505050505050565b81835281816020850137505f828201602090810191909152601f909101601f19169091010190565b6001600160a01b0387811682528616602082015260a0604082018190525f9061125090830187610f3f565b82810360608401526112628187610f3f565b905082810360808401526112778185876111fd565b9998505050505050505050565b5f60208284031215611294575f80fd5b81516001600160e01b031981168114610f8a575f80fd5b5f60033d11156112c15760045f803e505f5160e01c5b90565b601f8201601f1916810167ffffffffffffffff811182821017156112f657634e487b7160e01b5f52604160045260245ffd5b6040525050565b5f60443d101561130a5790565b6040516003193d81016004833e81513d67ffffffffffffffff816024840111818411171561133a57505050505090565b82850191508151818111156113525750505050505090565b843d870101602082850101111561136c5750505050505090565b61137b602082860101876112c4565b509095945050505050565b6001600160a01b03878116825286166020820152604081018590526060810184905260a0608082018190525f906113c090830184866111fd565b9897505050505050505056fea2646970667358221220095be13a3e76aea1b494bf01f51a55ba4328bbd0e58189f4b13fb36658f89f7d64736f6c63430008150033",
  "linkReferences": {},
  "deployedLinkReferences": {}
}