{
  "_format": "hh-sol-artifact-1",
  "contractName": "MyShop",
  "sourceName": "contracts/Shops/MyERC20Shop.sol",
  "abi": [
    {
      "inputs": [],
      "stateMutability": "nonpayable",
      "type": "constructor"
    },
    {
      "anonymous": false,
      "inputs": [
        {
          "indexed": false,
          "internalType": "uint256",
          "name": "_amount",
          "type": "uint256"
        },
        {
          "indexed": true,
          "internalType": "address",
          "name": "_buyer",
          "type": "address"
        }
      ],
      "name": "Bought",
      "type": "event"
    },
    {
      "anonymous": false,
      "inputs": [
        {
          "indexed": false,
          "internalType": "uint256",
          "name": "_amount",
          "type": "uint256"
        },
        {
          "indexed": true,
          "internalType": "address",
          "name": "_seller",
          "type": "address"
        }
      ],
      "name": "Sold",
      "type": "event"
    },
    {
      "inputs": [],
      "name": "ERC1155Token",
      "outputs": [
        {
          "internalType": "contract MyERC1155Token",
          "name": "",
          "type": "address"
        }
      ],
      "stateMutability": "view",
      "type": "function"
    },
    {
      "inputs": [],
      "name": "NFTtoken",
      "outputs": [
        {
          "internalType": "contract MyERC721Token",
          "name": "",
          "type": "address"
        }
      ],
      "stateMutability": "view",
      "type": "function"
    },
    {
      "inputs": [
        {
          "internalType": "uint256",
          "name": "tokenId",
          "type": "uint256"
        },
        {
          "internalType": "uint256",
          "name": "amount",
          "type": "uint256"
        },
        {
          "internalType": "bytes",
          "name": "data",
          "type": "bytes"
        }
      ],
      "name": "_mintERC1155Token",
      "outputs": [],
      "stateMutability": "nonpayable",
      "type": "function"
    },
    {
      "inputs": [
        {
          "internalType": "uint256",
          "name": "tokenId",
          "type": "uint256"
        },
        {
          "internalType": "uint256",
          "name": "amount",
          "type": "uint256"
        }
      ],
      "name": "_mintERC721Token",
      "outputs": [],
      "stateMutability": "nonpayable",
      "type": "function"
    },
    {
      "inputs": [
        {
          "internalType": "uint256",
          "name": "amount",
          "type": "uint256"
        }
      ],
      "name": "approve",
      "outputs": [],
      "stateMutability": "nonpayable",
      "type": "function"
    },
    {
      "inputs": [],
      "name": "buy",
      "outputs": [],
      "stateMutability": "payable",
      "type": "function"
    },
    {
      "inputs": [
        {
          "internalType": "uint256",
          "name": "id",
          "type": "uint256"
        }
      ],
      "name": "getERC1155Balance",
      "outputs": [
        {
          "internalType": "uint256",
          "name": "",
          "type": "uint256"
        }
      ],
      "stateMutability": "view",
      "type": "function"
    },
    {
      "inputs": [],
      "name": "getERC721Balance",
      "outputs": [
        {
          "internalType": "uint256",
          "name": "",
          "type": "uint256"
        }
      ],
      "stateMutability": "view",
      "type": "function"
    },
    {
      "inputs": [],
      "name": "owner",
      "outputs": [
        {
          "internalType": "address payable",
          "name": "",
          "type": "address"
        }
      ],
      "stateMutability": "view",
      "type": "function"
    },
    {
      "inputs": [
        {
          "internalType": "uint256",
          "name": "_amountToSell",
          "type": "uint256"
        }
      ],
      "name": "sell",
      "outputs": [],
      "stateMutability": "nonpayable",
      "type": "function"
    },
    {
      "inputs": [],
      "name": "senderBalance",
      "outputs": [
        {
          "internalType": "uint256",
          "name": "",
          "type": "uint256"
        }
      ],
      "stateMutability": "view",
      "type": "function"
    },
    {
      "inputs": [],
      "name": "token",
      "outputs": [
        {
          "internalType": "contract IERC20",
          "name": "",
          "type": "address"
        }
      ],
      "stateMutability": "view",
      "type": "function"
    },
    {
      "inputs": [],
      "name": "tokenBalance",
      "outputs": [
        {
          "internalType": "uint256",
          "name": "",
          "type": "uint256"
        }
      ],
      "stateMutability": "view",
      "type": "function"
    }
  ],
  "bytecode": "0x608060405234801561001057600080fd5b503060405161001e9061010c565b6001600160a01b039091168152602001604051809103906000f08015801561004a573d6000803e3d6000fd5b50600080546001600160a01b0319166001600160a01b03929092169190911790556040516100779061011a565b604051809103906000f080158015610093573d6000803e3d6000fd5b50600180546001600160a01b0319166001600160a01b03929092169190911790556040516100c090610128565b604051809103906000f0801580156100dc573d6000803e3d6000fd5b50600280546001600160a01b03929092166001600160a01b03199283161790556003805490911633179055610136565b610cb38062000fd483390190565b6117998062001c8783390190565b611608806200342083390190565b610e8e80620001466000396000f3fe6080604052600436106100c25760003560e01c80639e1a4d191161007f578063b759f95411610059578063b759f954146101db578063c4640541146101fb578063e4849b321461021b578063fc0c546a1461023b57600080fd5b80639e1a4d191461019e578063a6f2ae3a146101b3578063b116fcc3146101bb57600080fd5b8063158ccb24146100c757806328bda9dc146100e957806371abaf281461011c57806373ee4508146101315780638ce671ec146101695780638da5cb5b1461017e575b600080fd5b3480156100d357600080fd5b506100e76100e2366004610c09565b61025b565b005b3480156100f557600080fd5b50610109610104366004610c2b565b610403565b6040519081526020015b60405180910390f35b34801561012857600080fd5b5061010961048a565b34801561013d57600080fd5b50600254610151906001600160a01b031681565b6040516001600160a01b039091168152602001610113565b34801561017557600080fd5b5061010961050c565b34801561018a57600080fd5b50600354610151906001600160a01b031681565b3480156101aa57600080fd5b5061010961053d565b6100e761056e565b3480156101c757600080fd5b506100e76101d6366004610c44565b610698565b3480156101e757600080fd5b506100e76101f6366004610c2b565b61083b565b34801561020757600080fd5b50600154610151906001600160a01b031681565b34801561022757600080fd5b506100e7610236366004610c2b565b6108a2565b34801561024757600080fd5b50600054610151906001600160a01b031681565b6000546040516370a0823160e01b815233600482015282916001600160a01b0316906370a082319060240160206040518083038186803b15801561029e57600080fd5b505afa1580156102b2573d6000803e3d6000fd5b505050506040513d601f19601f820116820180604052508101906102d69190610cc4565b10156103295760405162461bcd60e51b815260206004820152601860248201527f496e73756666696369656e7420455243323020546f6b656e000000000000000060448201526064015b60405180910390fd5b6000546040516323b872dd60e01b8152336004820152306024820152604481018390526001600160a01b03909116906323b872dd90606401600060405180830381600087803b15801561037b57600080fd5b505af115801561038f573d6000803e3d6000fd5b50506001546001600160a01b0316915063d204c45e9050336103b085610b03565b6040518363ffffffff1660e01b81526004016103cd929190610cdd565b600060405180830381600087803b1580156103e757600080fd5b505af11580156103fb573d6000803e3d6000fd5b505050505050565b600254604051627eeac760e11b8152336004820152602481018390526000916001600160a01b03169062fdd58e9060440160206040518083038186803b15801561044c57600080fd5b505afa158015610460573d6000803e3d6000fd5b505050506040513d601f19601f820116820180604052508101906104849190610cc4565b92915050565b6001546040516370a0823160e01b81523360048201526000916001600160a01b0316906370a08231906024015b60206040518083038186803b1580156104cf57600080fd5b505afa1580156104e3573d6000803e3d6000fd5b505050506040513d601f19601f820116820180604052508101906105079190610cc4565b905090565b600080546040516370a0823160e01b81523360048201526001600160a01b03909116906370a08231906024016104b7565b600080546040516370a0823160e01b81523060048201526001600160a01b03909116906370a08231906024016104b7565b34806105b05760405162461bcd60e51b81526020600482015260116024820152706e6f7420656e6f7567682066756e64732160781b6044820152606401610320565b806105b961053d565b10156105fc5760405162461bcd60e51b81526020600482015260126024820152716e6f7420656e6f75676820746f6b656e732160701b6044820152606401610320565b60005460405163a9059cbb60e01b8152336004820152602481018390526001600160a01b039091169063a9059cbb90604401600060405180830381600087803b15801561064857600080fd5b505af115801561065c573d6000803e3d6000fd5b50506040518381523392507fc54c8cc1c7525b424ec71b685c00d9355581a280488018c22005332ceb2fd406915060200160405180910390a250565b6000546040516370a0823160e01b815233600482015284916001600160a01b0316906370a082319060240160206040518083038186803b1580156106db57600080fd5b505afa1580156106ef573d6000803e3d6000fd5b505050506040513d601f19601f820116820180604052508101906107139190610cc4565b10156107615760405162461bcd60e51b815260206004820152601860248201527f496e73756767696369656e7420455243323020546f6b656e00000000000000006044820152606401610320565b6000546040516323b872dd60e01b8152336004820152306024820152604481018590526001600160a01b03909116906323b872dd90606401600060405180830381600087803b1580156107b357600080fd5b505af11580156107c7573d6000803e3d6000fd5b5050600254604051635cfa929760e01b81526001600160a01b039091169250635cfa929791506108039033908890889088908890600401610d42565b600060405180830381600087803b15801561081d57600080fd5b505af1158015610831573d6000803e3d6000fd5b5050505050505050565b60005460405163095ea7b360e01b8152336004820152602481018390526001600160a01b039091169063095ea7b390604401600060405180830381600087803b15801561088757600080fd5b505af115801561089b573d6000803e3d6000fd5b5050505050565b60008111801561092b57506000546040516370a0823160e01b815233600482015282916001600160a01b0316906370a082319060240160206040518083038186803b1580156108f057600080fd5b505afa158015610904573d6000803e3d6000fd5b505050506040513d601f19601f820116820180604052508101906109289190610cc4565b10155b61096b5760405162461bcd60e51b8152602060048201526011602482015270696e636f727265637420616d6f756e742160781b6044820152606401610320565b60008054604051636eb1769f60e11b81523060048201523360248201526001600160a01b039091169063dd62ed3e9060440160206040518083038186803b1580156109b557600080fd5b505afa1580156109c9573d6000803e3d6000fd5b505050506040513d601f19601f820116820180604052508101906109ed9190610cc4565b905081811015610a325760405162461bcd60e51b815260206004820152601060248201526f636865636b20616c6c6f77616e63652160801b6044820152606401610320565b6000546040516323b872dd60e01b8152336004820152306024820152604481018490526001600160a01b03909116906323b872dd90606401600060405180830381600087803b158015610a8457600080fd5b505af1158015610a98573d6000803e3d6000fd5b505060405133925084156108fc02915084906000818181858888f19350505050158015610ac9573d6000803e3d6000fd5b5060405182815233907fdc0971a41bd3cc3dec88e610438b1a9f0752975bbd80f195baf7b766c0aec03e9060200160405180910390a25050565b606081610b275750506040805180820190915260018152600360fc1b602082015290565b8160005b8115610b515780610b3b81610da4565b9150610b4a9050600a83610dd5565b9150610b2b565b60008167ffffffffffffffff811115610b6c57610b6c610de9565b6040519080825280601f01601f191660200182016040528015610b96576020820181803683370190505b5090505b8415610c0157610bab600183610dff565b9150610bb8600a86610e16565b610bc3906030610e2a565b60f81b818381518110610bd857610bd8610e42565b60200101906001600160f81b031916908160001a905350610bfa600a86610dd5565b9450610b9a565b949350505050565b60008060408385031215610c1c57600080fd5b50508035926020909101359150565b600060208284031215610c3d57600080fd5b5035919050565b60008060008060608587031215610c5a57600080fd5b8435935060208501359250604085013567ffffffffffffffff80821115610c8057600080fd5b818701915087601f830112610c9457600080fd5b813581811115610ca357600080fd5b886020828501011115610cb557600080fd5b95989497505060200194505050565b600060208284031215610cd657600080fd5b5051919050565b60018060a01b038316815260006020604081840152835180604085015260005b81811015610d1957858101830151858201606001528201610cfd565b81811115610d2b576000606083870101525b50601f01601f191692909201606001949350505050565b60018060a01b038616815284602082015283604082015260806060820152816080820152818360a0830137600081830160a090810191909152601f909201601f19160101949350505050565b634e487b7160e01b600052601160045260246000fd5b6000600019821415610db857610db8610d8e565b5060010190565b634e487b7160e01b600052601260045260246000fd5b600082610de457610de4610dbf565b500490565b634e487b7160e01b600052604160045260246000fd5b600082821015610e1157610e11610d8e565b500390565b600082610e2557610e25610dbf565b500690565b60008219821115610e3d57610e3d610d8e565b500190565b634e487b7160e01b600052603260045260246000fdfea26469706673582212209b2b8d0439aaeb9b621f160f6785b1b0752b9a2d07ab3749cef8e86d3582b8e364736f6c6343000809003360806040523480156200001157600080fd5b5060405162000cb338038062000cb3833981016040819052620000349162000247565b604080518082018252600881526726a1a9aa37b5b2b760c11b6020808301918252835180850190945260038452621350d560ea1b90840152815191929160149185916200008491600491620001a1565b5082516200009a906005906020860190620001a1565b50600180546001600160a01b03191633179055620000b98282620000c4565b5050505050620002dd565b6001546001600160a01b03163314620001135760405162461bcd60e51b815260206004820152600d60248201526c6e6f7420616e206f776e65722160981b604482015260640160405180910390fd5b6001600160a01b038116600090815260026020526040812080548492906200013d90849062000279565b925050819055508160008082825462000157919062000279565b90915550506040518281526001600160a01b038216906000907fddf252ad1be2c89b69c2b068fc378daa952ba7f163c4a11628f55a4df523b3ef9060200160405180910390a35050565b828054620001af90620002a0565b90600052602060002090601f016020900481019282620001d357600085556200021e565b82601f10620001ee57805160ff19168380011785556200021e565b828001600101855582156200021e579182015b828111156200021e57825182559160200191906001019062000201565b506200022c92915062000230565b5090565b5b808211156200022c576000815560010162000231565b6000602082840312156200025a57600080fd5b81516001600160a01b03811681146200027257600080fd5b9392505050565b600082198211156200029b57634e487b7160e01b600052601160045260246000fd5b500190565b600181811c90821680620002b557607f821691505b60208210811415620002d757634e487b7160e01b600052602260045260246000fd5b50919050565b6109c680620002ed6000396000f3fe608060405234801561001057600080fd5b50600436106101005760003560e01c80638da5cb5b11610097578063a9059cbb11610066578063a9059cbb1461020f578063b09f126614610222578063d28d88521461022a578063dd62ed3e1461023257600080fd5b80638da5cb5b146101b657806394bf804d146101e157806395d89b41146101f45780639dc29fac146101fc57600080fd5b806327e235e3116100d357806327e235e31461015d578063313ce5671461017d57806370a08231146101845780637e1c0c09146101ad57600080fd5b806306fdde0314610105578063095ea7b31461012357806318160ddd1461013857806323b872dd1461014a575b600080fd5b61010d61026b565b60405161011a91906107c1565b60405180910390f35b610136610131366004610832565b6102fd565b005b6000545b60405190815260200161011a565b61013661015836600461085c565b61030c565b61013c61016b366004610898565b60026020526000908152604090205481565b601261013c565b61013c610192366004610898565b6001600160a01b031660009081526002602052604090205490565b61013c60005481565b6001546101c9906001600160a01b031681565b6040516001600160a01b03909116815260200161011a565b6101366101ef3660046108ba565b610462565b61010d610536565b61013661020a366004610832565b610545565b61013661021d366004610832565b6105d8565b61010d6106c5565b61010d610753565b61013c6102403660046108e6565b6001600160a01b03918216600090815260036020908152604080832093909416825291909152205490565b60606004805461027a90610910565b80601f01602080910402602001604051908101604052809291908181526020018280546102a690610910565b80156102f35780601f106102c8576101008083540402835291602001916102f3565b820191906000526020600020905b8154815290600101906020018083116102d657829003601f168201915b5050505050905090565b610308338383610760565b5050565b82818061032e836001600160a01b031660009081526002602052604090205490565b10156103765760405162461bcd60e51b81526020600482015260126024820152716e6f7420656e6f75676820746f6b656e732160701b60448201526064015b60405180910390fd5b6001600160a01b038085166000908152600360209081526040808320938916835292905290812080548592906103ad908490610961565b90915550506001600160a01b038516600090815260026020526040812080548592906103da908490610961565b90915550506001600160a01b03841660009081526002602052604081208054859290610407908490610978565b92505081905550836001600160a01b0316856001600160a01b03167fddf252ad1be2c89b69c2b068fc378daa952ba7f163c4a11628f55a4df523b3ef8560405161045391815260200190565b60405180910390a35050505050565b6001546001600160a01b031633146104ac5760405162461bcd60e51b815260206004820152600d60248201526c6e6f7420616e206f776e65722160981b604482015260640161036d565b6001600160a01b038116600090815260026020526040812080548492906104d4908490610978565b92505081905550816000808282546104ec9190610978565b90915550506040518281526001600160a01b038216906000907fddf252ad1be2c89b69c2b068fc378daa952ba7f163c4a11628f55a4df523b3ef9060200160405180910390a35050565b60606005805461027a90610910565b6001546001600160a01b0316331461058f5760405162461bcd60e51b815260206004820152600d60248201526c6e6f7420616e206f776e65722160981b604482015260640161036d565b6001600160a01b038216600090815260026020526040812080548392906105b7908490610961565b92505081905550806000808282546105cf9190610961565b90915550505050565b33600081815260026020526040902054829081111561062e5760405162461bcd60e51b81526020600482015260126024820152716e6f7420656e6f75676820746f6b656e732160701b604482015260640161036d565b336000908152600260205260408120805485929061064d908490610961565b90915550506001600160a01b0384166000908152600260205260408120805485929061067a908490610978565b90915550506040518381526001600160a01b0385169033907fddf252ad1be2c89b69c2b068fc378daa952ba7f163c4a11628f55a4df523b3ef9060200160405180910390a350505050565b600580546106d290610910565b80601f01602080910402602001604051908101604052809291908181526020018280546106fe90610910565b801561074b5780601f106107205761010080835404028352916020019161074b565b820191906000526020600020905b81548152906001019060200180831161072e57829003601f168201915b505050505081565b600480546106d290610910565b6001600160a01b0383811660008181526003602090815260408083209487168084529482529182902085905590518481527f6e11fb1b7f119e3f2fa29896ef5fdf8b8a2d0d4df6fe90ba8668e7d8b2ffa25e910160405180910390a3505050565b600060208083528351808285015260005b818110156107ee578581018301518582016040015282016107d2565b81811115610800576000604083870101525b50601f01601f1916929092016040019392505050565b80356001600160a01b038116811461082d57600080fd5b919050565b6000806040838503121561084557600080fd5b61084e83610816565b946020939093013593505050565b60008060006060848603121561087157600080fd5b61087a84610816565b925061088860208501610816565b9150604084013590509250925092565b6000602082840312156108aa57600080fd5b6108b382610816565b9392505050565b600080604083850312156108cd57600080fd5b823591506108dd60208401610816565b90509250929050565b600080604083850312156108f957600080fd5b61090283610816565b91506108dd60208401610816565b600181811c9082168061092457607f821691505b6020821081141561094557634e487b7160e01b600052602260045260246000fd5b50919050565b634e487b7160e01b600052601160045260246000fd5b6000828210156109735761097361094b565b500390565b6000821982111561098b5761098b61094b565b50019056fea26469706673582212202bb28ff778b2b41a417dade23f4e4ed557e2ccd91e8e2c0d300f4181019ccf4664736f6c6343000809003360806040523480156200001157600080fd5b50604080518082018252600781526626bcaa37b5b2b760c91b6020808301918252835180850190945260038452624d544b60e81b9084015281519192916200005c916000916200008d565b508051620000729060019060208401906200008d565b5050600780546001600160a01b031916331790555062000170565b8280546200009b9062000133565b90600052602060002090601f016020900481019282620000bf57600085556200010a565b82601f10620000da57805160ff19168380011785556200010a565b828001600101855582156200010a579182015b828111156200010a578251825591602001919060010190620000ed565b50620001189291506200011c565b5090565b5b808211156200011857600081556001016200011d565b600181811c908216806200014857607f821691505b602082108114156200016a57634e487b7160e01b600052602260045260246000fd5b50919050565b61161980620001806000396000f3fe608060405234801561001057600080fd5b50600436106100ea5760003560e01c806395d89b411161008c578063b88d4fde11610066578063b88d4fde146101eb578063c87b56dd146101fe578063d204c45e14610211578063e985e9c51461022457600080fd5b806395d89b41146101bd578063a22cb465146101c5578063b3e1c718146101d857600080fd5b806342966c68116100c857806342966c68146101635780636352211e1461017657806370a08231146101895780638da5cb5b146101aa57600080fd5b806306fdde03146100ef578063081812fc1461010d578063095ea7b31461014e575b600080fd5b6100f7610247565b60405161010491906111b0565b60405180910390f35b61013661011b3660046111ca565b6000908152600560205260409020546001600160a01b031690565b6040516001600160a01b039091168152602001610104565b61016161015c3660046111ff565b6102d9565b005b6101616101713660046111ca565b6103fa565b6101366101843660046111ca565b610449565b61019c610197366004611229565b6104a0565b604051908152602001610104565b600754610136906001600160a01b031681565b6100f761050b565b6101616101d3366004611244565b61051a565b6101616101e63660046111ff565b6105d8565b6101616101f9366004611296565b6105f6565b6100f761020c3660046111ca565b61064b565b61016161021f366004611372565b61065c565b6102376102323660046113f5565b61070e565b6040519015158152602001610104565b60606000805461025690611428565b80601f016020809104026020016040519081016040528092919081815260200182805461028290611428565b80156102cf5780601f106102a4576101008083540402835291602001916102cf565b820191906000526020600020905b8154815290600101906020018083116102b257829003601f168201915b5050505050905090565b60006102e482610449565b90506001600160a01b0381163314806103025750610302813361070e565b6103435760405162461bcd60e51b815260206004820152600d60248201526c6e6f7420616e206f776e65722160981b60448201526064015b60405180910390fd5b806001600160a01b0316836001600160a01b0316141561039e5760405162461bcd60e51b815260206004820152601660248201527531b0b73737ba1030b8383937bb32903a379039b2b63360511b604482015260640161033a565b60008281526005602052604080822080546001600160a01b0319166001600160a01b0387811691821790925591518593918516917f8c5be1e5ebec7d5bd14f71427d1e84f3dd0314c0f7b2291e5b200ac8c7c3b92591a4505050565b610404338261073c565b61043d5760405162461bcd60e51b815260206004820152600a6024820152696e6f74206f776e65722160b01b604482015260640161033a565b6104468161079b565b50565b60008181526003602052604081205482906001600160a01b031661047f5760405162461bcd60e51b815260040161033a9061145d565b6000838152600360205260409020546001600160a01b031691505b50919050565b60006001600160a01b0382166104ef5760405162461bcd60e51b81526020600482015260146024820152736f776e65722063616e6e6f74206265207a65726f60601b604482015260640161033a565b506001600160a01b031660009081526002602052604090205490565b60606001805461025690611428565b336001600160a01b038316141561056c5760405162461bcd60e51b815260206004820152601660248201527531b0b73737ba1030b8383937bb32903a379039b2b63360511b604482015260640161033a565b3360008181526004602090815260408083206001600160a01b03871680855290835292819020805460ff191686151590811790915590519081529192917f17307eab39ab6107e8899845ad3d59bd9653f200f220920489ca2b5937696c31910160405180910390a35050565b6105f28282604051806020016040528060008152506107a4565b5050565b610600338361073c565b6106395760405162461bcd60e51b815260206004820152600a6024820152696e6f74206f776e65722160b01b604482015260640161033a565b61064584848484610802565b50505050565b606061065682610865565b92915050565b6007546001600160a01b031633146106a65760405162461bcd60e51b815260206004820152600d60248201526c6e6f7420616e206f776e65722160981b604482015260640161033a565b6106b2836008546105d8565b6106f460085483838080601f0160208091040260200160405190810160405280939291908181526020018383808284376000920191909152506109bc92505050565b6008805490600061070483611498565b9190505550505050565b6001600160a01b03918216600090815260046020908152604080832093909416825291909152205460ff1690565b60008061074883610449565b9050806001600160a01b0316846001600160a01b0316148061076f575061076f818561070e565b8061079357506000838152600560205260409020546001600160a01b038581169116145b949350505050565b61044681610a11565b6107ae8383610a51565b6107bb6000848484610b81565b6107fd5760405162461bcd60e51b81526020600482015260136024820152723737b716b2b9319b9918903932b1b2b4bb32b960691b604482015260640161033a565b505050565b61080d848484610cbe565b61081984848484610b81565b6106455760405162461bcd60e51b815260206004820152601f60248201527f7472616e7366657220746f206e6f6e2d65726337323120726563656976657200604482015260640161033a565b606081610889816000908152600360205260409020546001600160a01b0316151590565b6108a55760405162461bcd60e51b815260040161033a9061145d565b600083815260066020526040812080546108be90611428565b80601f01602080910402602001604051908101604052809291908181526020018280546108ea90611428565b80156109375780601f1061090c57610100808354040283529160200191610937565b820191906000526020600020905b81548152906001019060200180831161091a57829003601f168201915b505050505090506000610964604080518082019091526007815266697066733a2f2f60c81b602082015290565b90508051600014156109785750915061049a565b8151156109aa5780826040516020016109929291906114b3565b6040516020818303038152906040529350505061049a565b6109b385610e2e565b95945050505050565b60008281526003602052604090205482906001600160a01b03166109f25760405162461bcd60e51b815260040161033a9061145d565b6000838152600660209081526040909120835161064592850190611089565b610a1a81610ee6565b60008181526006602052604090208054610a3390611428565b1590506104465760008181526006602052604081206104469161110d565b6001600160a01b038216610a995760405162461bcd60e51b815260206004820152600f60248201526e7a65726f206164647265737320746f60881b604482015260640161033a565b6000818152600360205260409020546001600160a01b031615610afe5760405162461bcd60e51b815260206004820152601f60248201527f7468697320746f6b656e20696420697320616c7265616479206d696e74656400604482015260640161033a565b600081815260036020908152604080832080546001600160a01b0319166001600160a01b038716908117909155835260029091528120805491610b4083611498565b909155505060405181906001600160a01b038416906000907fddf252ad1be2c89b69c2b068fc378daa952ba7f163c4a11628f55a4df523b3ef908290a45050565b60006001600160a01b0384163b15610cb357604051630a85bd0160e11b81526001600160a01b0385169063150b7a0290610bc59033908990889088906004016114e2565b602060405180830381600087803b158015610bdf57600080fd5b505af1925050508015610c0f575060408051601f3d908101601f19168201909252610c0c9181019061151f565b60015b610c99573d808015610c3d576040519150601f19603f3d011682016040523d82523d6000602084013e610c42565b606091505b508051610c915760405162461bcd60e51b815260206004820152601f60248201527f5472616e7366657220746f206e6f6e2d65726337323120726563656976657200604482015260640161033a565b805181602001fd5b6001600160e01b031916630a85bd0160e11b149050610793565b506001949350505050565b826001600160a01b0316610cd182610449565b6001600160a01b031614610d1a5760405162461bcd60e51b815260206004820152601060248201526f696e636f7272656374206f776e65722160801b604482015260640161033a565b6001600160a01b038216610d665760405162461bcd60e51b8152602060048201526013602482015272746f2061646472657373206973207a65726f2160681b604482015260640161033a565b600081815260056020908152604080832080546001600160a01b03191690556001600160a01b038616835260029091528120805491610da483611549565b90915550506001600160a01b0382166000908152600260205260408120805491610dcd83611498565b909155505060008181526003602052604080822080546001600160a01b0319166001600160a01b0386811691821790925591518493918716917fddf252ad1be2c89b69c2b068fc378daa952ba7f163c4a11628f55a4df523b3ef91a4505050565b606081610e52816000908152600360205260409020546001600160a01b0316151590565b610e6e5760405162461bcd60e51b815260040161033a9061145d565b6000610e94604080518082019091526007815266697066733a2f2f60c81b602082015290565b90506000815111610eb45760405180602001604052806000815250610793565b80610ebe85610f8b565b604051602001610ecf9291906114b3565b604051602081830303815290604052949350505050565b6000610ef182610449565b9050600082815260056020908152604080832080546001600160a01b03191690556001600160a01b038416835260029091528120805491610f3183611549565b909155505060008281526003602052604080822080546001600160a01b0319169055518391906001600160a01b038416907fddf252ad1be2c89b69c2b068fc378daa952ba7f163c4a11628f55a4df523b3ef908390a45050565b606081610faf5750506040805180820190915260018152600360fc1b602082015290565b8160005b8115610fd95780610fc381611498565b9150610fd29050600a83611576565b9150610fb3565b60008167ffffffffffffffff811115610ff457610ff4611280565b6040519080825280601f01601f19166020018201604052801561101e576020820181803683370190505b5090505b84156107935761103360018361158a565b9150611040600a866115a1565b61104b9060306115b5565b60f81b818381518110611060576110606115cd565b60200101906001600160f81b031916908160001a905350611082600a86611576565b9450611022565b82805461109590611428565b90600052602060002090601f0160209004810192826110b757600085556110fd565b82601f106110d057805160ff19168380011785556110fd565b828001600101855582156110fd579182015b828111156110fd5782518255916020019190600101906110e2565b50611109929150611143565b5090565b50805461111990611428565b6000825580601f10611129575050565b601f01602090049060005260206000209081019061044691905b5b808211156111095760008155600101611144565b60005b8381101561117357818101518382015260200161115b565b838111156106455750506000910152565b6000815180845261119c816020860160208601611158565b601f01601f19169290920160200192915050565b6020815260006111c36020830184611184565b9392505050565b6000602082840312156111dc57600080fd5b5035919050565b80356001600160a01b03811681146111fa57600080fd5b919050565b6000806040838503121561121257600080fd5b61121b836111e3565b946020939093013593505050565b60006020828403121561123b57600080fd5b6111c3826111e3565b6000806040838503121561125757600080fd5b611260836111e3565b91506020830135801515811461127557600080fd5b809150509250929050565b634e487b7160e01b600052604160045260246000fd5b600080600080608085870312156112ac57600080fd5b6112b5856111e3565b93506112c3602086016111e3565b925060408501359150606085013567ffffffffffffffff808211156112e757600080fd5b818701915087601f8301126112fb57600080fd5b81358181111561130d5761130d611280565b604051601f8201601f19908116603f0116810190838211818310171561133557611335611280565b816040528281528a602084870101111561134e57600080fd5b82602086016020830137600060208483010152809550505050505092959194509250565b60008060006040848603121561138757600080fd5b611390846111e3565b9250602084013567ffffffffffffffff808211156113ad57600080fd5b818601915086601f8301126113c157600080fd5b8135818111156113d057600080fd5b8760208285010111156113e257600080fd5b6020830194508093505050509250925092565b6000806040838503121561140857600080fd5b611411836111e3565b915061141f602084016111e3565b90509250929050565b600181811c9082168061143c57607f821691505b6020821081141561049a57634e487b7160e01b600052602260045260246000fd5b6020808252600b908201526a6e6f74206d696e7465642160a81b604082015260600190565b634e487b7160e01b600052601160045260246000fd5b60006000198214156114ac576114ac611482565b5060010190565b600083516114c5818460208801611158565b8351908301906114d9818360208801611158565b01949350505050565b6001600160a01b038581168252841660208201526040810183905260806060820181905260009061151590830184611184565b9695505050505050565b60006020828403121561153157600080fd5b81516001600160e01b0319811681146111c357600080fd5b60008161155857611558611482565b506000190190565b634e487b7160e01b600052601260045260246000fd5b60008261158557611585611560565b500490565b60008282101561159c5761159c611482565b500390565b6000826115b0576115b0611560565b500690565b600082198211156115c8576115c8611482565b500190565b634e487b7160e01b600052603260045260246000fdfea2646970667358221220816ce09f66e274fe25a0e230c589f7148a30bfb0ed248e551e07c6d43961bed164736f6c6343000809003360806040523480156200001157600080fd5b506040805180820190915260018152602f60f81b602082015262000035816200003c565b5062000138565b80516200005190600290602084019062000055565b5050565b8280546200006390620000fb565b90600052602060002090601f016020900481019282620000875760008555620000d2565b82601f10620000a257805160ff1916838001178555620000d2565b82800160010185558215620000d2579182015b82811115620000d2578251825591602001919060010190620000b5565b50620000e0929150620000e4565b5090565b5b80821115620000e05760008155600101620000e5565b600181811c908216806200011057607f821691505b602082108114156200013257634e487b7160e01b600052602260045260246000fd5b50919050565b6114c080620001486000396000f3fe608060405234801561001057600080fd5b506004361061009d5760003560e01c80635cfa9297116100665780635cfa9297146101305780638e8a759014610143578063a22cb46514610156578063e985e9c514610169578063f242432a1461018c57600080fd5b8062fdd58e146100a25780630e89341c146100c85780632eb2c2d6146100e85780634e1273f4146100fd5780634f2999a71461011d575b600080fd5b6100b56100b0366004610d74565b61019f565b6040519081526020015b60405180910390f35b6100db6100d6366004610d9e565b6101da565b6040516100bf9190610db7565b6100fb6100f6366004610e9a565b61026e565b005b61011061010b366004610f55565b6102ad565b6040516100bf9190610ffc565b6100fb61012b366004610e9a565b610389565b6100fb61013e366004611016565b6106ec565b6100fb61015136600461107e565b610700565b6100fb6101643660046110f6565b6108d9565b61017c610177366004611132565b6108e8565b60405190151581526020016100bf565b6100fb61019a36600461107e565b610916565b60006001600160a01b0383166101b457600080fd5b506000908152602081815260408083206001600160a01b03949094168352929052205490565b6060600280546101e990611165565b80601f016020809104026020016040519081016040528092919081815260200182805461021590611165565b80156102625780601f1061023757610100808354040283529160200191610262565b820191906000526020600020905b81548152906001019060200180831161024557829003601f168201915b50505050509050919050565b6001600160a01b03881633148061028a575061028a88336108e8565b61029357600080fd5b6102a38888888888888888610389565b5050505050505050565b60608382146102bb57600080fd5b8367ffffffffffffffff8111156102d4576102d46111a0565b6040519080825280602002602001820160405280156102fd578160200160208202803683370190505b50905060005b8481101561038057610353868683818110610320576103206111b6565b905060200201602081019061033591906111cc565b858584818110610347576103476111b6565b9050602002013561019f565b828281518110610365576103656111b6565b6020908102919091010152610379816111fd565b9050610303565b50949350505050565b84831461039557600080fd5b600033905061043e818a8a8a8a8080602002602001604051908101604052809392919081815260200183836020028082843760009201919091525050604080516020808e0282810182019093528d82529093508d92508c91829185019084908082843760009201919091525050604080516020601f8d018190048102820181019092528b815292508b91508a908190840183828082843760009201919091525061094992505050565b60005b8681101561056d57600088888381811061045d5761045d6111b6565b905060200201359050600087878481811061047a5761047a6111b6565b905060200201359050600080600084815260200190815260200160002060008e6001600160a01b03166001600160a01b03168152602001908152602001600020549050818110156104ca57600080fd5b6104d48282611218565b60008085815260200190815260200160002060008f6001600160a01b03166001600160a01b03168152602001908152602001600020819055508160008085815260200190815260200160002060008e6001600160a01b03166001600160a01b031681526020019081526020016000206000828254610552919061122f565b9250508190555050505080610566906111fd565b9050610441565b50876001600160a01b0316896001600160a01b0316826001600160a01b03167f4a39dc06d4c0dbc64b70af90fd698a233a518aa5d07e595d983b8c0526c8f7fb8a8a8a8a6040516105c1949392919061127d565b60405180910390a461066d818a8a8a8a8080602002602001604051908101604052809392919081815260200183836020028082843760009201919091525050604080516020808e0282810182019093528d82529093508d92508c91829185019084908082843760009201919091525050604080516020601f8d018190048102820181019092528b815292508b91508a908190840183828082843760009201919091525061094992505050565b6106e1818a8a8a8a8080602002602001604051908101604052809392919081815260200183836020028082843760009201919091525050604080516020808e0282810182019093528d82529093508d92508c9182918501908490808284376000920191909152508b92508a91506109519050565b505050505050505050565b6106f98585858585610ace565b5050505050565b6001600160a01b03851661071357600080fd5b33600061071f86610ae9565b9050600061072c86610ae9565b9050610772838a8a85858a8a8080601f01602080910402602001604051908101604052809392919081815260200183838082843760009201919091525061094992505050565b6000878152602081815260408083206001600160a01b038d168452909152902054868110156107a057600080fd5b6107aa8782611218565b6000808a815260200190815260200160002060008c6001600160a01b03166001600160a01b0316815260200190815260200160002081905550866000808a815260200190815260200160002060008b6001600160a01b03166001600160a01b031681526020019081526020016000206000828254610828919061122f565b909155505060408051898152602081018990526001600160a01b03808c16928d821692918816917fc3d58168c5ae7397731d063d5bbf3d657854427343f4c083240f7aacaa2d0f62910160405180910390a46108be848b8b86868b8b8080601f01602080910402602001604051908101604052809392919081815260200183838082843760009201919091525061094992505050565b6108cd848b8b8b8b8b8b610b30565b50505050505050505050565b6108e4338383610c1f565b5050565b6001600160a01b03918216600090815260016020908152604080832093909416825291909152205460ff1690565b6001600160a01b038616331480610932575061093286336108e8565b61093b57600080fd5b610949868686868686610700565b505050505050565b6001600160a01b0385163b15610ac55760405163bc197c8160e01b81526001600160a01b0386169063bc197c8190610997908a908a9089908990899089906004016112d8565b602060405180830381600087803b1580156109b157600080fd5b505af19250505080156109e1575060408051601f3d908101601f191682019092526109de91810190611338565b60015b610a72576109ed611362565b806308c379a01415610a305750610a026113b9565b80610a0d5750610a32565b8060405162461bcd60e51b8152600401610a279190610db7565b60405180910390fd5b505b60405162461bcd60e51b81526020600482015260156024820152744e6f6e2d455243313135352072656365697665722160581b6044820152606401610a27565b6001600160e01b0319811663bc197c8160e01b146102a35760405162461bcd60e51b815260206004820152601060248201526f52656a656374656420746f6b656e732160801b6044820152606401610a27565b50505050505050565b610ad9858585610cab565b6106f96000338787878787610b30565b604080516001808252818301909252606091602080830190803683370190505090508181600081518110610b1f57610b1f6111b6565b602002602001018181525050919050565b6001600160a01b0385163b15610ac55760405163f23a6e6160e01b81526001600160a01b0386169063f23a6e6190610b76908a908a908990899089908990600401611443565b602060405180830381600087803b158015610b9057600080fd5b505af1925050508015610bc0575060408051601f3d908101601f19168201909252610bbd91810190611338565b60015b610bcc576109ed611362565b6001600160e01b0319811663f23a6e6160e01b146102a35760405162461bcd60e51b815260206004820152601060248201526f52656a656374656420746f6b656e732160801b6044820152606401610a27565b816001600160a01b0316836001600160a01b03161415610c3e57600080fd5b6001600160a01b03838116600081815260016020908152604080832094871680845294825291829020805460ff191686151590811790915591519182527f17307eab39ab6107e8899845ad3d59bd9653f200f220920489ca2b5937696c31910160405180910390a3505050565b6001600160a01b038316610cf35760405162461bcd60e51b815260206004820152600f60248201526e7a65726f206164647265737320746f60881b6044820152606401610a27565b6000828152602081815260408083206001600160a01b038716808552908352818420859055815186815292830185905292339290917fc3d58168c5ae7397731d063d5bbf3d657854427343f4c083240f7aacaa2d0f62910160405180910390a4505050565b80356001600160a01b0381168114610d6f57600080fd5b919050565b60008060408385031215610d8757600080fd5b610d9083610d58565b946020939093013593505050565b600060208284031215610db057600080fd5b5035919050565b600060208083528351808285015260005b81811015610de457858101830151858201604001528201610dc8565b81811115610df6576000604083870101525b50601f01601f1916929092016040019392505050565b60008083601f840112610e1e57600080fd5b50813567ffffffffffffffff811115610e3657600080fd5b6020830191508360208260051b8501011115610e5157600080fd5b9250929050565b60008083601f840112610e6a57600080fd5b50813567ffffffffffffffff811115610e8257600080fd5b602083019150836020828501011115610e5157600080fd5b60008060008060008060008060a0898b031215610eb657600080fd5b610ebf89610d58565b9750610ecd60208a01610d58565b9650604089013567ffffffffffffffff80821115610eea57600080fd5b610ef68c838d01610e0c565b909850965060608b0135915080821115610f0f57600080fd5b610f1b8c838d01610e0c565b909650945060808b0135915080821115610f3457600080fd5b50610f418b828c01610e58565b999c989b5096995094979396929594505050565b60008060008060408587031215610f6b57600080fd5b843567ffffffffffffffff80821115610f8357600080fd5b610f8f88838901610e0c565b90965094506020870135915080821115610fa857600080fd5b50610fb587828801610e0c565b95989497509550505050565b600081518084526020808501945080840160005b83811015610ff157815187529582019590820190600101610fd5565b509495945050505050565b60208152600061100f6020830184610fc1565b9392505050565b60008060008060006080868803121561102e57600080fd5b61103786610d58565b94506020860135935060408601359250606086013567ffffffffffffffff81111561106157600080fd5b61106d88828901610e58565b969995985093965092949392505050565b60008060008060008060a0878903121561109757600080fd5b6110a087610d58565b95506110ae60208801610d58565b94506040870135935060608701359250608087013567ffffffffffffffff8111156110d857600080fd5b6110e489828a01610e58565b979a9699509497509295939492505050565b6000806040838503121561110957600080fd5b61111283610d58565b91506020830135801515811461112757600080fd5b809150509250929050565b6000806040838503121561114557600080fd5b61114e83610d58565b915061115c60208401610d58565b90509250929050565b600181811c9082168061117957607f821691505b6020821081141561119a57634e487b7160e01b600052602260045260246000fd5b50919050565b634e487b7160e01b600052604160045260246000fd5b634e487b7160e01b600052603260045260246000fd5b6000602082840312156111de57600080fd5b61100f82610d58565b634e487b7160e01b600052601160045260246000fd5b6000600019821415611211576112116111e7565b5060010190565b60008282101561122a5761122a6111e7565b500390565b60008219821115611242576112426111e7565b500190565b81835260006001600160fb1b0383111561126057600080fd5b8260051b8083602087013760009401602001938452509192915050565b604081526000611291604083018688611247565b82810360208401526112a4818587611247565b979650505050505050565b81835281816020850137506000828201602090810191909152601f909101601f19169091010190565b6001600160a01b0387811682528616602082015260a06040820181905260009061130490830187610fc1565b82810360608401526113168187610fc1565b9050828103608084015261132b8185876112af565b9998505050505050505050565b60006020828403121561134a57600080fd5b81516001600160e01b03198116811461100f57600080fd5b600060033d111561137b5760046000803e5060005160e01c5b90565b601f8201601f1916810167ffffffffffffffff811182821017156113b257634e487b7160e01b600052604160045260246000fd5b6040525050565b600060443d10156113c75790565b6040516003193d81016004833e81513d67ffffffffffffffff81602484011181841117156113f757505050505090565b828501915081518181111561140f5750505050505090565b843d87010160208285010111156114295750505050505090565b6114386020828601018761137e565b509095945050505050565b6001600160a01b03878116825286166020820152604081018590526060810184905260a06080820181905260009061147e90830184866112af565b9897505050505050505056fea26469706673582212204cd2c8e03e6d7770445b1e304ed158291422999be94df6b415f17dd86bf0cad564736f6c63430008090033",
  "linkReferences": {},
  "deployedLinkReferences": {}
}